:100000000C94EC010C9409020C9409020C94090262
:100010000C9409020C9409020C9409020C94090234
:100020000C9409020C94DA110C9409020C949613A6
:100030000C9409020C9409020C9409020C94090214
:100040000C9409020C9409020C94510F0C940A0FA1
:100050000C9409020C9409020C9409020C940902F4
:100060000C9409020C940902084AD73B3BCE016E5E
:1000700084BCBFFDC12F3D6C74319ABD56833DDAFF
:100080003D00C77F11BED9E4BB4C3E916BAAAABE0E
:10009000000000803F05A84CCDB2D44EB93836A937
:1000A000020C50B9918688083CA6AAAA2ABE000074
:1000B00000803F0D0A00496E76616C696420636FB1
:1000C0006D6D616E640D0A004D6F64616C20677226
:1000D0006F75702076696F6C6174696F6E0D0A00C0
:1000E000466C6F6174696E6720706F696E7420650D
:1000F00072726F720D0A00556E737570706F727444
:1001000065642073746174656D656E740D0A0045D5
:100110007870656374656420636F6D6D616E6420D3
:100120006C65747465720D0A00426164206E756DB1
:1001300062657220666F726D61740D0A006572727D
:100140006F723A20006F6B0D0A000D0A27242720DA
:10015000746F2064756D702063757272656E7420A3
:1001600073657474696E67730D0A000D0A477262D5
:100170006C20302E386131005761726E696E673ABB
:10018000204661696C656420746F2072656164202B
:10019000454550524F4D2073657474696E67732ED8
:1001A000205573696E672064656661756C74732E83
:1001B0000D0A0053746F726564206E657720736555
:1001C0007474696E670D0A00556E6B6E6F776E20E2
:1001D000706172616D657465720D0A0053746570AB
:1001E0002070756C7365206D757374206265203E98
:1001F0003D2033206D6963726F7365636F6E647346
:100200000D0A0053746570732F6D6D206D757374D6
:10021000206265203E20302E300D0A000D0A272472
:10022000783D76616C75652720746F207365742046
:10023000706172616D65746572206F72206A75738A
:10024000742027242720746F2064756D70206375D7
:100250007272656E742073657474696E67730D0ACB
:10026000002028636F726E6572696E67206A756E12
:100270006374696F6E20646576696174696F6E205E
:10028000696E206D6D29002028616363656C65725D
:100290006174696F6E20696E206D6D2F7365635E8A
:1002A00032290D0A2439203D2000290D0A24382046
:1002B0003D200020287374657020706F727420696F
:1002C0006E76657274206D61736B2E2062696E614B
:1002D0007279203D200020286D6D2F61726320739C
:1002E00065676D656E74290D0A2437203D20002056
:1002F000286D6D2F6D696E2064656661756C742064
:100300007365656B2072617465290D0A2436203D82
:10031000200020286D6D2F6D696E20646566617503
:100320006C7420666565642072617465290D0A2409
:1003300035203D200020286D6963726F7365636FFF
:100340006E647320737465702070756C7365290D0D
:100350000A2434203D2000202873746570732F6DAB
:100360006D207A290D0A2433203D20002028737443
:100370006570732F6D6D2079290D0A2432203D2080
:1003800000202873746570732F6D6D2078290D0A15
:100390002431203D20002430203D2000494E464994
:1003A0004E4954594E414ECDCCCC3D0AD7233C1733
:1003B000B7D13877CC2B329595E6241FB14F0A0080
:1003C0000020410000C84200401C4620BCBE4CCA70
:1003D0001B0E5AAEC59D740011241FBECFEFD8E08E
:1003E000DEBFCDBF11E0A0E0B1E0E2E5F6E502C07E
:1003F00005900D92AC31B107D9F716E0ACE1B1E050
:1004000001C01D92A83FB107E1F70E940B020C94B6
:10041000272B0C9400006F927F928F929F92AF9245
:10042000BF92CF92DF92EF92FF920F931F93DF93D1
:10043000CF93CDB7DEB768970FB6F894DEBF0FBE87
:10044000CDBF60E875E280E090E00E94BC0E0E94A3
:100450004A137894E9EEF5E08AE2DF011D928A956D
:10046000E9F781E08093E9055E010894A11CB11CC5
:100470009DE0C92ED12CCC0EDD1E4F018AE2682EE4
:10048000772473948091E905882309F453C0D5013A
:10049000ECEEF5E08CE001900D928150E1F7D60191
:1004A000E9EFF5E08CE001900D928150E1F7F40165
:1004B000862D11928A95E9F70E944C0F0E94151A19
:1004C0000E94B20F0E94FA210E94CA060E94960E54
:1004D0000E945C220E948213ACEEB5E0F5018CE034
:1004E00001900D928150E1F7A9EFB5E0F6018CE0A3
:1004F00001900D928150E1F769817A818B819C8115
:100500002D813E814F815885E984FA840B851C85B5
:100510000E94770669817A818B819C812D813E8141
:100520004F815885E984FA840B851C850E94B11A95
:100530007092EB050E9429110E947811A3CFEF92CF
:10054000FF920F931F930E94E92260E070E080E029
:1005500090E020E030E040E050E0EE24FF2487010E
:100560000E94B11A1F910F91FF90EF900895EF92A2
:10057000FF920F931F93CF93DF937B018C0120E0B9
:1005800030E040EA51E40E9420280E9428260E9480
:10059000BF25EB010E94DD21C801B70120E030E05A
:1005A0004AE754E40E9420287B018C0182E390E01A
:1005B000C89FB001C99F700DD89F700D112480E0B5
:1005C00090E00E94EB259B01AC01C801B7010E949D
:1005D00071240E9428260E94BF25DC01CB010E94C5
:1005E0000E2200E911E00EC00E9429118091E90558
:1005F000882351F484EF91E0F8013197F1F70197E6
:10060000D9F72197209781F7DF91CF911F910F9113
:10061000FF90EF9008954F925F926F927F928F922A
:10062000AF92BF92CF92DF92EF92FF920F931F9300
:10063000DF93CF9300D000D0CDB7DEB72B013C01C4
:1006400029833A834B835C830E9429118091E905B9
:10065000882391F40E94A71A8823B1F7C301B2013D
:1006600029813A814B815C810E94381E8091EB0583
:10067000882311F00E94D1120F900F900F900F90CD
:10068000CF91DF911F910F91FF90EF90DF90CF906E
:10069000BF90AF908F907F906F905F904F90089534
:1006A0002F923F924F925F926F927F928F929F9282
:1006B000AF92BF92CF92DF92EF92FF920F931F9370
:1006C000DF93CF93CDB7DEB7CE54D0400FB6F894BA
:1006D000DEBF0FBECDBF3C017EAF6DAF21965FAFD9
:1006E0004EAF219722962FAF229723960FAF2397D5
:1006F0002496EFAE24972896ACAEBDAECEAEDFAE5C
:10070000289729968FAE2997E22EFF24EE0CFF1C26
:10071000EE0CFF1C4E0D5F1D5CAF4BAFDA012D9050
:100720003D904D905C90FC01EE0DFF1DC201B101AA
:1007300020813181428153810E94722469AB7AAB5E
:100740008BAB9CAB10E0000F111F000F111F219607
:10075000EEADFFAD2197E00FF11FFAAFE9AFA0803A
:10076000B180C280D380F301E00FF11FC601B50153
:1007700020813181428153810E9472246DA77EA71E
:100780008FA798AB24962FAD2497E22FF0E0EE0FC1
:10079000FF1FEE0FFF1F6E0E7F1ED3018D919D91E7
:1007A0000D90BC91A02D8DAB9EABAFABB8AF2DAD76
:1007B0003EADE20FF31F60817181828193812DA98B
:1007C0003EA94FA958AD0E94712469A77AA78BA7AB
:1007D0009CA7D201C101B0588DA39EA3AFA3B8A717
:1007E000A6019501505829A33AA34BA35CA34DAD94
:1007F0005EADE40EF51ED7016D917D918D919C91BA
:1008000029A93AA94BA95CA90E9471243B014C017A
:10081000EDADFEAD0E0F1F1FD8016D917D918D9135
:100820009C912DA53EA54FA558A90E9471245B015E
:100830006C016DA17EA18FA198A5A60195010E94D2
:1008400020287B018C0169A17AA18BA19CA1A40124
:1008500093010E9420289B01AC01C801B7010E94AE
:1008600071241B012C016DA17EA18FA198A5A4016B
:1008700093010E9420287B018C0169A17AA18BA1A0
:100880009CA1A60195010E9420289B01AC01C801F2
:10089000B7010E9472249B01AC01C201B1010E9408
:1008A000E5245B016C0120E030E040E050E00E9474
:1008B0004B25882354F4C601B5012BED3FE049ECEC
:1008C00050E40E9472245B016C01A8968FADA8973A
:1008D000882351F0C601B5012BED3FE049EC50E40F
:1008E0000E9471245B016C01C601B501A7962CAD75
:1008F0003DAD4EAD5FADA7970E94202829A53AA532
:100900004BA55CA50E945B277B018C0120E030E0B9
:1009100040E050E00E944B25882309F4CEC1C80175
:10092000B7012091EA063091EB064091EC06509118
:10093000ED060E9452250E9428260E94BF2578A31A
:100940006F8F2996BFAD2997BB23A1F080E090E07F
:100950000E94EB259B01AC0128966CAD7DAD8EAD60
:100960009FAD28970E94202828966CAF7DAF8EAF50
:100970009FAF28972F8D38A1B90180E090E00E94A9
:10098000EB257B018C01C601B501A80197010E94EE
:1009900052256B8F7C8F8D8F9E8F69A57AA58BA535
:1009A0009CA5A80197010E9452256F8B788F898F93
:1009B0009A8F6B8D7C8D8D8D9E8D20E030E040E098
:1009C0005FEB0E9420282B8D3C8D4D8D5E8D0E940B
:1009D000202820E030E040E85FE30E9472246B8B27
:1009E0007C8B8D8B9E8B24963FAD2497E32FF0E07C
:1009F000EE0FFF1FEE0FFF1FCE010196E80FF91F4C
:100A00002DA93EA94FA958AD20833183428353833A
:100A100041E050E05E874D8766242296BFAD229765
:100A2000AB2FB0E0AA0FBB1FAA0FBB1FA80FB91FA7
:100A30002B96BFAFAEAF2B9723963FAD2397232FB7
:100A400030E0220F331F220F331F280F391F2D963E
:100A50003FAF2EAF2D972F96FFAFEEAF2F9707C169
:100A600048E146150CF446C06DA17EA18FA198A562
:100A70002B8D3C8D4D8D5E8D0E9420287B018C013D
:100A800069A17AA18BA19CA12B893C894D895E89A2
:100A90000E9420289B01AC01C801B7010E9472246A
:100AA0007B018C016DA17EA18FA198A52B893C892A
:100AB0004D895E890E9420285B016C0169A17AA1A1
:100AC0008BA19CA12B8D3C8D4D8D5E8D0E9420288D
:100AD0009B01AC01C601B5010E9471246DA37EA3E8
:100AE0008FA398A76394C701D80189A39AA3ABA346
:100AF000BCA361C0AD85BE85BD0180E090E00E94D1
:100B0000EB252B8D3C8D4D8D5E8D0E9420287B0129
:100B10008C01C8010E944F256F87788B898B9A8B37
:100B2000B701C8010E94A3283B014C01EBADFCAD0D
:100B3000E080F1800281138117FB109517F9109561
:100B4000A9ADBAAD2D903D904D905C90C801B70114
:100B50002F85388949895A890E9420285B016C01B8
:100B6000C201B101A40193010E9420289B01AC01A4
:100B7000C601B5010E9472246DA37EA38FA398A71E
:100B8000C801B701A40193010E9420287B018C01B8
:100B9000C201B1012F85388949895A890E942028CC
:100BA0009B01AC01C801B7010E94712469A37AA31B
:100BB0008BA39CA3662469A97AA98BA99CA92DA1C2
:100BC0003EA14FA158A50E9472242B96EEADFFAD19
:100BD0002B9760837183828393836DA57EA58FA5F8
:100BE00098A929A13AA14BA15CA10E9472242D963B
:100BF000AEADBFAD2D976D937D938D939C93139761
:100C00002F96EEADFFAD2F97608171818281938128
:100C10002F89388D498D5A8D0E9472242F96AEAD42
:100C2000BFAD2F976D937D938D939C93139769819F
:100C30007A818B819C812D813E814F815885E98409
:100C4000FA840B851C852896ACACBDACCEACDFAC71
:100C5000289729968FAC29970E940B038091E9056C
:100C6000882359F5ED85FE853196FE87ED872D8524
:100C70003E854F8D58A12417350708F4F1CEADAD50
:100C8000BEAD6D917D918D919C91139714962D9190
:100C90003D914D915C9117971896ED90FD900D91B7
:100CA0001C911B972896ACACBDACCEACDFAC2897A2
:100CB00029968FAC29970E940B03C25BDF4F0FB6BA
:100CC000F894DEBF0FBECDBFCF91DF911F910F9182
:100CD000FF90EF90DF90CF90BF90AF909F908F905C
:100CE0007F906F905F904F903F902F900895AF92BC
:100CF000BF92CF92DF92EF92FF920F931F93590111
:100D00006A010E94ED252091D3063091D4064091CE
:100D1000D5065091D6060E94522560932B01709300
:100D20002C0180932D0190932E01C601B5010E94E4
:100D3000ED252091D7063091D8064091D9065091E3
:100D4000DA060E94522560932F0170933001809340
:100D5000310190933201C801B7010E94ED25209125
:100D6000DB063091DC064091DD065091DE060E94E4
:100D70005225609333017093340180933501909331
:100D800036011F910F91FF90EF90DF90CF90BF90B1
:100D9000AF90089581E2ECE1F1E0DF011D928A95C8
:100DA000E9F78091E1069091E206A091E306B09107
:100DB000E4068093230190932401A0932501B0932E
:100DC000260110923A0191E090933B0182E08093DA
:100DD0003C019093200108950F931F93CF93DF93CD
:100DE000EC018B01D9018C91FA01E80FF11DE08132
:100DF000EE23B1F0E883E154EA3110F082E00EC056
:100E00008C918F5F8C93CA01B901A8010E942122A5
:100E1000892B19F021E030E005C081E080931C01AE
:100E200020E030E0C901DF91CF911F910F9108952B
:100E30002F923F924F925F926F927F928F929F92EA
:100E4000AF92BF92CF92DF92EF92FF920F931F93D8
:100E5000DF93CF93CDB7DEB7AC970FB6F894DEBF74
:100E60000FBECDBF2C0119828CE0FE013796DF0149
:100E7000482F1D924A95E9F7FE017396DF011D92F6
:100E80008A95E9F710921C012224332418A61FA288
:100E900062E0862E912C8C0E9D1E53E0652E712CE7
:100EA0006C0E7D1E43E0A42E01E032E0B32E84C11F
:100EB000CB80DC80ED80FE80C701B6010E94EE2869
:100EC0000E94BA259B014A81473421F04D3409F034
:100ED00073C11CC16E317105C9F16F317105D4F454
:100EE0006431710584F461317105A4F564307105D4
:100EF00069F1653071051CF4772354F525C06A301B
:100F0000710511F523C06631710554F16C3171051D
:100F1000D9F41CC06C3571058CF46A357105E4F4A4
:100F20006C3371053CF466337105E4F46533710587
:100F300059F40CC06035710539F40AC06C3571057F
:100F400029F06F35710554F010E00DC011E00BC0B1
:100F500012E009C013E007C014E005C016E003C0AA
:100F600017E001C019E02531310509F495C026319B
:100F70003105A4F52430310509F467C02530310569
:100F8000A4F42130310509F466C02230310524F47F
:100F9000232B09F45DC0FAC02230310509F45EC08C
:100FA0002330310509F0F2C05CC02231310509F46B
:100FB00062C0233131054CF42A30310509F443C0B5
:100FC0002131310509F0E2C04FC02331310509F468
:100FD00059C02431310509F0D9C05BC02035310535
:100FE00009F46AC021353105ACF42533310509F423
:100FF00059C0263331054CF42C31310509F44FC06A
:101000002E31310509F0C2C04AC02C3331050CF035
:10101000BDC04BC02C35310509F458C02D35310504
:101020004CF42A35310509F44BC02B35310509F054
:10103000ADC049C02D35310509F462C02E353105EA
:1010400009F0A4C060C0B2E059C0E1E0EFA3A0C0C5
:1010500010921D019DC000931D019AC0B0921D0108
:1010600097C0A0921D0194C010923A0100933B01D9
:10107000B0923C018DC010923A01B0923B010093B6
:101080003C0186C000933A01B0923B0110923C01B2
:101090007FC000931F017CC010921F0179C0F3E054
:1010A000FFA376C041E048A773C02633310509F09D
:1010B0006DC01092F8056CC054E050931D0168C0DB
:1010C0000093200165C01092200162C0C701B601E3
:1010D00020E030E040E251E40E9420280E94EE2807
:1010E0000E94BA2583E06839780739F0695973405E
:1010F00009F04CC0A5E0AFA34BC0B4E0BFA348C00B
:1011000000931E0145C010921E0142C06630710559
:1011100034F46330710554F4772334F403C06E3132
:10112000710511F010E003C015E001C018E0233094
:101130003105F9F0243031054CF42130310599F0B6
:10114000223031059CF4232B71F020C0253031056D
:10115000B9F02530310584F02E31310539F02436CF
:101160003105A1F410C00093210112C0B0922101F9
:101170000FC0009322010CC0EFEFE093220108C0E2
:101180001092220105C00E94431302C0A0921C01CC
:10119000112391F021E030E002C0220F331F1A9595
:1011A000E2F7C90182219321892B21F0F5E0F09328
:1011B0001C0102C0222A332AC401B301A2019E01EC
:1011C0002F5F3F4F0E94EC06892B09F071CE809172
:1011D0001C01882309F091C51982772419A61AA643
:1011E00040E84BA75FEB5CA70F2EF0E0AF2EF0E0DE
:1011F000BF2EF0E0CF2EF0E0DF2EF02DABA2BCA290
:10120000CDA2DEA2882426E0922E3EC11A8112359C
:1012100009F496C0133584F41C343CF419340CF0F2
:1012200059C0163409F030C11AC01C3409F479C011
:10123000103509F029C17FC0183509F4CFC0193520
:101240003CF4133509F498C0143509F01DC1ADC044
:10125000193509F4DCC01A3509F016C1F1C0EB806C
:10126000FC800D811E81C801B70120E030E040E024
:1012700050E00E944B25181614F090921C018091AA
:101280001E01882381F080911F01882309F4F8C092
:10129000C801B70123E333E34BEC51E40E9420285B
:1012A0007B018C01EDC080911F01882351F0C801A2
:1012B000B70123E333E34BEC51E40E9420287B0188
:1012C0008C01E0922301F0922401009325011093F8
:1012D0002601CEC02B813C814D815E8180911F0112
:1012E000882351F0CA01B90123E333E34BEC51E405
:1012F0000E9420289B01AC01E12FFF27E7FDF0951C
:10130000E954F040EE0FFF1FEE0FFF1F61E070E0A9
:101310006C0F7D1FE60FF71F228B338B448B558B91
:10132000A7C06B817C818D819E810E94EE280E94E6
:10133000BF25862E9DC0AB80BC80CD80DE8098C04E
:101340008B819C81AD81BE818BA39CA3ADA3BEA3E9
:1013500080911F01882309F48BC06BA17CA18DA112
:101360009EA123E333E34BEC51E40E9420286BA3BE
:101370007CA38DA39EA37CC0EB80FC800D811E818D
:10138000C801B70120E030E040E050E00E944B256A
:10139000882314F490921C01C801B7010E94BA2559
:1013A000709339016093380163C0EB80FC800D813C
:1013B0001E81C801B70120E030E040E050E00E940B
:1013C0004B25882314F490921C01C801B7010E9498
:1013D000EE280E94BF25609337014AC02B813C81D3
:1013E0004D815E8180911F01882351F0CA01B901AE
:1013F00023E333E34BEC51E40E9420289B01AC0132
:101400002F83388749875A8791E0792A31C02B8109
:101410003C814D815E8180911F01882351F0CA017A
:10142000B90123E333E34BEC51E40E9420289B01F4
:10143000AC012B873C874D875E87A2E07A2A18C0D3
:101440002B813C814D815E8180911F01882351F069
:10145000CA01B90123E333E34BEC51E40E94202895
:101460009B01AC012F87388B498B5A8BB4E07B2AC8
:1014700029A53AA54BA55CA5C901DA017C018D011E
:10148000E9A6FAA60BA71CA7CE010296BE016D5FC6
:101490007F4FA2019E012F5F3F4F0E94EC06892BD8
:1014A00009F0B4CE972C29A53AA54BA55CA5C90196
:1014B000DA018F8F98A3A9A3BAA380911C01882376
:1014C00009F01BC4809122014091380150913901EB
:1014D000662757FD6095762F992787FD90950E9486
:1014E000A00EEFA1E33009F457C0E43028F4E13056
:1014F00061F0E23041F419C0FFA1F43009F4E0C01A
:10150000F53009F433C1972C3AC1C601B50120E08A
:1015100030E040E050E00E944B2588230CF4D2C01C
:10152000C601B5010E94B7022AC142E0841649F4FF
:10153000C601B5010E94EE280E94BA2561307105EE
:1015400021F083E080931C0119C1772009F4BAC00F
:10155000AE01495F5F4FE9EFF5E020E030E0672D35
:1015600070E0CB01022E02C0959587950A94E2F7B0
:1015700080FF09C0DA01ED90FD900D911C91E08291
:10158000F182028313832F5F3F4F4C5F5F4F34968E
:101590002330310531F7F2C0772009F487C050902D
:1015A00020018E01095F1F4F8BE2A82E81E0B82E2B
:1015B0009091F8058CE0989F70011124E9EFF5E017
:1015C000EE0EFF1EB5E08B2EB6E09B2ECC24DD2464
:1015D000672C7724C3010C2C02C0959587950A943B
:1015E000E2F780FF30C05520D9F0D7016D917D9191
:1015F0008D919C91F40120813181428153810E941F
:1016000072249B01AC01D8016D917D918D919C91CB
:101610000E947224F80160837183828393831DC0CA
:10162000D8016D917D918D919C91F5012081318141
:10163000428153810E947224D8016D937D938D93D2
:101640009C9313970AC0F50180819181A281B38197
:10165000F80180839183A283B3830894C11CD11CB9
:101660000C5F1F4F44E050E0A40EB51EE40EF51EC3
:10167000840E951E53E0C516D10409F0ABCF6F81DF
:10168000788589859A852B853C854D855E85EF8497
:10169000F88809891A89A090E506B090E606C090FE
:1016A000E706D090E80688240E940B030E949F0260
:1016B0008CE0EBE2F1E0DF011D928A95E9F75EC074
:1016C000772021F486E080931C0159C0ABE2AA2E5A
:1016D000A1E0BA2EF7E0CF2ED12CCC0EDD1EE5E036
:1016E000EE2EE6E0FE2E00E010E0872C9924C401E7
:1016F000002E02C0959587950A94E2F780FF28C0D6
:101700008091F80590E0FC01EE0FFF1FE80FF91F34
:10171000E00FF11FEE0FFF1FEE0FFF1FE750FA4F14
:10172000D5016D917D918D919C9120813181428176
:1017300053810E947124F6012081318142815381BD
:101740000E947124D7016D937D938D939C93139781
:101750000F5F1F4FE4E0F0E0AE0EBF1ECE0EDF1EA7
:10176000EE0EFF1E0330110511F608C08CE0E5E017
:10177000F6E0DF011D928A95E9F701C0992422FC69
:1017800003C0992009F4ADC280901E01882099F011
:101790006F8D78A189A19AA120E030E040E050E06F
:1017A0000E944B2588233CF480911D01843019F060
:1017B00086E080931C01B8A5BB2339F080911D0100
:1017C000823018F086E080931C0180911C018823F0
:1017D00009F093C2309020018E01095F1F4F909154
:1017E000F8058CE0989F70011124E9EFF5E0EE0E0A
:1017F000FF1E55E0652E56E0752E4BE2A42E41E00B
:10180000B42ECC24DD24492C5524C2010C2C02C05A
:10181000959587950A94E2F780FF33C0F8A5FF23DA
:10182000D1F53320D9F0D7016D917D918D919C91A7
:10183000F30120813181428153810E9472249B01F6
:10184000AC01D8016D917D918D919C910E94722483
:10185000F80160837183828393831DC0D8016D91E9
:101860007D918D919C91F50120813181428153813F
:101870000E947224D8016D937D938D939C9313974E
:101880000AC0F50180819181A281B381F801808332
:101890009183A283B3830894C11CD11C0C5F1F4F9A
:1018A00044E050E0E40EF51E640E751EA40EB51E55
:1018B00053E0C516D10409F0A8CF80911D018430F2
:1018C00048F4823008F04CC0882359F0813009F088
:1018D000FBC120C0843009F0F7C1992009F4F4C19C
:1018E00087C0992009F484C06F81788589859A859D
:1018F0002B853C854D855E85EF84F88809891A899A
:10190000A090E506B090E606C090E706D090E80605
:10191000882423C0992009F46BC06F81788589855C
:101920009A852B853C854D855E85EF84F8880989ED
:101930001A89882061F4A0912301A9A7B0912401FC
:10194000BAA7E0912501EBA7F0912601FCA7E9A534
:10195000FAA5ABA5BCA55F016D010E940B03B4C144
:1019600081E090E000903C0102C0880F991F0A942A
:10197000E2F780958921E1F16BA17CA18DA19EA167
:1019800020E030E040E050E00E944B258823A1F5A4
:10199000E0913A01F0E0EE0FFF1FEE0FFF1F8E0106
:1019A0000F5F1F4FE00FF11F62897389848995894A
:1019B00020E030E040E050E00E944B258823E1F435
:1019C00080913B0190E0880F991F880F991F080FA5
:1019D000191FD80152966D917D918D919C915597CB
:1019E00020E030E040E050E00E944B25882321F4C5
:1019F00086E080931C0168C16BA17CA18DA19EA192
:101A000020E030E040E050E00E944B258E010F5F67
:101A10001F4F882309F4EFC0E0913A01F0E0EE0F88
:101A2000FF1FEE0FFF1FD801AE0FBF1FE45EFE4F7A
:101A300016966D917D918D919C911997278530898E
:101A4000418952890E9471241B012C01E0913B01C4
:101A5000F0E0EE0FFF1FEE0FFF1F0E0F1F1FE45EE3
:101A6000FE4FD80116966D917D918D919C9119979D
:101A700027853089418952890E9471243B014C019C
:101A80008CE0FE017396DF011D928A95E9F76BA148
:101A90007CA18DA19EA120E030E040E850E40E94AE
:101AA00020282BA13CA14DA15EA10E9420287B01F2
:101AB0008C01C201B101A20191010E9420289B0169
:101AC000AC01C801B7010E9471247B018C01C401E3
:101AD000B301A40193010E9420289B01AC01C8011D
:101AE000B7010E9471240E94AD287B018C01C201C4
:101AF000B101A40193010E945B279B01AC0117FB7C
:101B0000109517F91095C801B7010E9452256B0175
:101B10007C01A70196010E94F528882321F084E02A
:101B200080931C01EAC080911D01833021F4F7FAF3
:101B3000F094F7F8F0946BA17CA18DA19EA120E018
:101B400030E040E050E00E944B2588236CF4F7FA27
:101B5000F094F7F8F0944BA15CA16DA17EA17058B0
:101B60004BA35CA36DA37EA300913A01A02EBB24DE
:101B7000AA0CBB1CAA0CBB1C8E010F5F1F4FA00E32
:101B8000B11EC401B301A70196010E9420289B0148
:101B9000AC01C201B1010E94712420E030E040E0BC
:101BA0005FE30E942028D50152966D937D938D931B
:101BB0009C93559780913B0190E0880F991F880F67
:101BC000991F080F191FC201B101A70196010E94B8
:101BD00020289B01AC01C401B3010E94722420E0C3
:101BE00030E040E05FE30E942028F801628B738BB5
:101BF000848B958B23C0E0913A01F0E0EE0FFF1F3C
:101C0000EE0FFF1FE00FF11F6289738984899589A8
:101C100020913B0130E0220F331F220F331F020FB0
:101C2000131FD80152962D913D914D915C9155977E
:101C30000E945B276BA37CA38DA39EA390911D01A3
:101C400020913A0100913B01E0903C0180901E01FF
:101C5000882061F4B0912301B9A7E0912401EAA79B
:101C6000F0912501FBA7409126014CA700D000D0A0
:101C70000F92EDB7FEB731964BA15CA16DA17EA18D
:101C8000ADB7BEB711964D935D936D937C9314974A
:101C900080E0923009F481E084838BE291E0BE0120
:101CA000695F7F4FAE014D5E5F4F39A5EAA5FBA589
:101CB000ACA5A32EBE2ECF2EDA2E0E9450030F907D
:101CC0000F900F900F900F9080911C018823A9F422
:101CD000ABE2B1E0FE0137968CE001900D928150AD
:101CE000E1F780912101882331F00E94DD211092DB
:101CF000EB051092210180911C01AC960FB6F8946F
:101D0000DEBF0FBECDBFCF91DF911F910F91FF902E
:101D1000EF90DF90CF90BF90AF909F908F907F908B
:101D20006F905F904F903F902F90089510923D01DB
:101D3000249A259A2C982D9808952C982D980895DA
:101D4000CF93DF93EC0180913D0190E0C817D90754
:101D500081F00E94DD21209741F01C161D0614F42D
:101D60002D9801C02D9A2C9A02C02C982D98C093C2
:101D70003D01DF91CF910895EF92FF920F931F9352
:101D80007B018C0122E030E040E050E00E945229CB
:101D9000205C3D4B404F5F4FCA01B901A80197013C
:101DA0000E945229215030403093C5002093C40036
:101DB000E0ECF0E080818D7F8083E1ECF0E08081D9
:101DC0008061808380818860808380818068808357
:101DD0001F910F91FF90EF900895282FE0914001FF
:101DE0009E2F9F5F903431F490E004C080911206E2
:101DF00084FD0FC0809141019817C1F3F0E0ED56CA
:101E0000F94F2083909340018091C10080628093BC
:101E1000C10008951F920F920FB60F9211248F9355
:101E20009F93EF93FF9380914101E82FF0E0ED56EF
:101E3000F94F90819093C600982F9F5F903409F4DA
:101E400090E09093410180914001981729F480918E
:101E5000C1008F7D8093C100FF91EF919F918F9181
:101E60000F900FBE0F901F90189590913F01809199
:101E70003E01891711F4EFEF0DC0E92FF0E0ED5EA0
:101E8000F94FE081892F8F5F80933F01803811F4F3
:101E900010923F018E2F089580913E0180933F0163
:101EA00008951F920F920FB60F9211242F933F9314
:101EB0004F935F936F937F938F939F93AF93BF9352
:101EC000EF93FF939091C6009532D1F0963228F4AB
:101ED0009831D1F0913221F50FC09F3319F09E3720
:101EE000F9F404C080911206816003C0809112064B
:101EF00082608093120625C0809112068860F9CF17
:101F0000809112068062F5CF8091120684FD04C094
:101F10000E94C9110E949D0E809112068061E9CF36
:101F2000E0913E012E2F2F5F203809F420E08091B0
:101F30003F01281731F0F0E0ED5EF94F90832093D8
:101F40003E01FF91EF91BF91AF919F918F917F9152
:101F50006F915F914F913F912F910F900FBE0F9016
:101F60001F9018958BE691E00E9456248AE491E038
:101F70000E94562410927401109275010895CF9317
:101F8000DF93EC01009719F485E491E036C08DE30E
:101F900091E00E945624C330D105D1F0C430D10560
:101FA0003CF4C130D10571F0C230D105E9F40DC067
:101FB000C530D10599F0C530D1056CF0C630D105DA
:101FC00099F40FC089E291E018C08FE091E015C04C
:101FD00087EF90E012C080EE90E00FC088EC90E0B8
:101FE0000CC086EB90E009C0BE01882777FD809584
:101FF000982F0E94092483EB90E00E945624DF91E1
:10200000CF910895FC018081843221F4CF010E9498
:10201000241A0895CF010E94180708951F9313B141
:102020001695109511701A9B1260319B1860329BA7
:102030001061359B106280E091E00E946424612F62
:1020400070E080E090E00E94092485E091E00E9429
:1020500064241F910895DF93CF93CDB7DEB72C97FB
:102060000FB6F894DEBF0FBECDBFDE011196ECEEC9
:10207000F5E08CE001900D928150E1F789E091E06C
:102080000E94642469817A818B819C810E94ED2564
:102090002091D3063091D4064091D5065091D606B2
:1020A0000E9452250E949A2380E191E00E946424BC
:1020B0006D817E818F8198850E94ED252091D706C4
:1020C0003091D8064091D9065091DA060E945225E7
:1020D0000E949A2380E191E00E94642469857A85B8
:1020E0008B859C850E94ED252091DB063091DC06D6
:1020F0004091DD065091DE060E9452250E949A23EF
:1021000082E191E00E94642469817A818B819C81C3
:102110000E94ED252091D3063091D4064091D5063A
:102120005091D6060E9452252091F80530E0F90121
:10213000EE0FFF1FE20FF31FEE0FFF1FEE0FFF1F4B
:10214000E751FA4F20893189428953890E947124CD
:102150002091050630910606409107065091080629
:102160000E9471240E949A2380E191E00E946424DD
:102170006D817E818F8198850E94ED252091D70603
:102180003091D8064091D9065091DA060E94522526
:102190002091F80530E0F901EE0FFF1FE20FF31F69
:1021A000EE0FFF1FEE0FFF1FE751FA4F248935890D
:1021B000468957890E9471242091090630910A06A8
:1021C00040910B0650910C060E9471240E949A23A4
:1021D00080E191E00E94642469857A858B859C85E5
:1021E0000E94ED252091DB063091DC064091DD0652
:1021F0005091DE060E9452252091F80530E0F90149
:10220000EE0FFF1FE20FF31FEE0FFF1FEE0FFF1F7A
:10221000E751FA4F208D318D428D538D0E947124EC
:1022200020910D0630910E0640910F065091100638
:102230000E9471240E949A2385E091E00E94642408
:102240002C960FB6F894DEBF0FBECDBFCF91DF91B5
:1022500008951F9335990DC08091120684FD09C021
:102260000E94C9110E949D0E809112068061809388
:102270001206809112068823C9F180911206182F48
:1022800084FF04C081E08093E90530C080FF07C06F
:102290000E942B10809112068E7F8093120615FFEC
:1022A00007C00E940E10809112068F7D8093120647
:1022B00013FF07C00E94F81280911206877F809357
:1022C000120612FF07C00E940613809112068B7F30
:1022D0008093120611FF0AC00E94D11281E0809300
:1022E000EB05809112068D7F809312061F91089551
:1022F0001F9311E046C02A3011F02D30E1F40E9406
:1023000029118091E905882309F041C0E091740109
:10231000EE2351F0F0E0EE5BFE4F108282E491E09C
:102320000E94021090E002C080E090E00E94BF0F87
:102330001092740106C080917501882329F029321A
:1023400001F5109275011DC02132D8F02F32C9F06D
:10235000283219F41093750114C0909174019133CF
:1023600080F4822F8156E92FF0E09F5F8A3120F4BC
:10237000EE5BFE4F205202C0EE5BFE4F2083909337
:1023800074010E94350F282F8F3F09F0B4CF1F91A1
:10239000089580916F008D7F80936F008AEF90E0A9
:1023A00020E931E0F9013197F1F70197D9F7289841
:1023B0002D9808951F920F920FB60F921124EF924D
:1023C000FF920F931F932F933F934F935F938F939E
:1023D0009F93AF93BF938CED8093B20082E0809384
:1023E000B1008091A0019091A101A091A201B091B2
:1023F000A3010196A11DB11D8093A0019093A1019D
:10240000A093A201B093A3018091F4059091F505EA
:10241000A091F605B091F705B7FF04C0EE24FF24A4
:10242000870114C07C018D0193E015950795F79401
:10243000E7949A95D1F723E3E216F104010511051B
:1024400028F082E3E82EF12C012D112D2091A0011E
:102450003091A1014091A2015091A30188279927B1
:10246000DC018E199F09A00BB10B89549C4FAF4F13
:10247000BF4F281739074A075B0709F4449A809130
:10248000A0019091A101A091A201B091A301885E49
:102490009340A040B04049F444981092A00110929B
:1024A000A1011092A2011092A301BF91AF919F913F
:1024B0008F915F914F913F912F911F910F91FF90BD
:1024C000EF900F900FBE0F901F9018959B01AC01DD
:1024D000203283E0380780E0480780E0580720F486
:1024E00020E233E040E050E060E070E788E399E309
:1024F0000E943029C901DA01803020E0920721E0F2
:10250000A20720E0B20738F4FC019C0140E050E053
:1025100060E070E031C0803020E0920728E0A20740
:1025200020E0B207A8F423E0B695A7959795879584
:102530002A95D1F7FC019C0140E050E0A3E0220F76
:10254000331F441F551FAA95D1F761E070E014C0F6
:1025500076E0B695A795979587957A95D1F7FC0182
:102560009C0140E050E066E0220F331F441F551FDE
:102570006A95D1F762E070E080918100962F9F5FAD
:10258000887F982B90938100F0938900E0938800D6
:1025900020938B0130938C0140938D0150938E01D9
:1025A000089580911106882311F58091EA0588230A
:1025B000F1F481E0809311068091E90680939E01F9
:1025C0008091E00690E0A0E0B0E00297A109B10997
:1025D000880F991FAA1FBB1F819580939D0185B10C
:1025E000816285B980916F00826080936F00089549
:1025F0008091EA05882349F480911106882329F007
:102600001092EB0581E08093EA050895E0919B012B
:10261000F0919C013097A1F1658576858785908939
:1026200020918701309188014091890150918A0160
:10263000621B730B840B950B0E94E81D1092930193
:1026400010929401109295011092960160E070E052
:1026500080E090E00E94661280E091E7A2E0B0E0A6
:1026600080938F0190939001A0939101B093920178
:1026700010928701109288011092890110928A01AC
:102680001092EA050895409A82E390E00E940E229B
:102690004098089581E187B98EEE88B98AB18C6F30
:1026A0008AB98BB183709091E906892B8BB984B17B
:1026B000816284B9E1E8F0E080818F7E808380814F
:1026C00088608083E0E8F0E080818D7F8083808176
:1026D0008E7F808380818F73808380818F7C8083D5
:1026E0001092B000E0E7F0E08081816080838CEDA3
:1026F0008093B20082E08093B1000E9443130E9455
:10270000C911089584E2E7E7F1E0DF011D928A959F
:10271000E9F760E273E080E090E00E9466121092B8
:102720009C0110929B0110929F0108951F920F929D
:102730000FB60F921124EF92FF920F931F932F93D6
:102740003F934F935F936F937F938F939F93AF9339
:10275000BF93CF93DF93EF93FF9380919F018823E3
:1027600009F06CC39BB120919E01822F807E9F71E6
:10277000892B8BB9199905C025FF03C0922F9B7F28
:1027800001C0922F1A9902C026FD977F8BB1837EDC
:10279000982B9BB981E080939F0178948091E0060B
:1027A000982F969586958695980F909376018091AF
:1027B00076018150809376018F5FC9F79BB180913C
:1027C000E9068C71937E892B8BB980919B01909146
:1027D0009C01892B09F081C00E94941AEC0190930E
:1027E0009C0180939B01009709F46EC08091EA05DB
:1027F0008823D1F46BA17CA18DA19EA1609393014C
:102800007093940180939501909396010E946612B3
:1028100080E091E7A2E0B0E080938F019093900177
:10282000A0939101B09392012BA53CA54DA55EA567
:10283000DA01C901B595A79597958795820F931FE2
:10284000A41FB51F8093970190939801A0939901BD
:10285000B0939A012D853E854F855889DA01C901CB
:10286000B595A79597958795B095A09590958195E5
:102870009F4FAF4FBF4F8093770190937801A09304
:102880007901B0937A0180937B0190937C01A093AE
:102890007D01B0937E0180937F0190938001A0938E
:1028A0008101B0938201209383013093840140938E
:1028B0008501509386011092870110928801109231
:1028C000890110928A0109C00E94C9111092110653
:1028D00080911206846080931206E0919B01F09132
:1028E0009C01309709F4A1C2208120939E01409160
:1028F0007701509178016091790170917A0181811D
:102900009281A381B481480F591F6A1F7B1F409396
:102910007701509378016093790170937A011416CE
:10292000150616061706C4F5246020939E018091B3
:10293000830190918401A0918501B0918601481B8B
:10294000590B6A0B7B0B409377015093780160938E
:10295000790170937A0125FF0CC08091EC0590916C
:10296000ED05A091EE05B091EF050197A109B10920
:102970000BC08091EC059091ED05A091EE05B09112
:10298000EF050196A11DB11D8093EC059093ED0517
:10299000A093EE05B093EF0540917B0150917C012F
:1029A00060917D0170917E0185819681A781B085BE
:1029B000480F591F6A1F7B1F40937B0150937C0176
:1029C00060937D0170937E01141615061606170696
:1029D000D4F520919E01286020939E01809183016F
:1029E00090918401A0918501B0918601481B590BFB
:1029F0006A0B7B0B40937B0150937C0160937D01BC
:102A000070937E0126FF0CC08091F0059091F10536
:102A1000A091F205B091F3050197A109B1090BC08E
:102A20008091F0059091F105A091F205B091F30528
:102A30000196A11DB11D8093F0059093F105A0931F
:102A4000F205B093F30540917F01509180016091B0
:102A500081017091820181859285A385B485480F9B
:102A6000591F6A1F7B1F40937F0150938001609321
:102A70008101709382011416150616061706D4F507
:102A800020919E01206120939E018091830190916D
:102A90008401A0918501B0918601481B590B6A0BF6
:102AA0007B0B40937F015093800160938101709371
:102AB000820127FF0CC08091F4059091F505A0914B
:102AC000F605B091F7050197A109B1090BC08091F6
:102AD000F4059091F505A091F605B091F7050196E2
:102AE000A11DB11D8093F4059093F505A093F60503
:102AF000B093F705209187013091880140918901B9
:102B000050918A012F5F3F4F4F4F5F4F20938701B6
:102B1000309388014093890150938A018585968579
:102B2000A785B089281739074A075B0708F077C1DE
:102B30008091EA05882309F45DC020918B013091D2
:102B40008C0140918D0150918E0180918F01909167
:102B50009001A0919101B0919201280F391F4A1F55
:102B60005B1F20938F01309390014093910150930C
:102B70009201213002EE300704E0400700E05007E8
:102B800008F453C12050324E4440504020938F01EE
:102B900030939001409391015093920120919301C1
:102BA00030919401409195015091960163A574A5CF
:102BB00085A596A5621773078407950750F00E94B4
:102BC000C91110921106809112068460809312063A
:102BD0002CC179018A01E61AF70A080B190BC80102
:102BE000B701E0929301F092940100939501109344
:102BF00096016CC087A590A9A1A9B2A92817390789
:102C00004A075B0708F065C020918B0130918C0169
:102C100040918D0150918E0180918F019091900192
:102C2000A0919101B0919201280F391F4A1F5B1F9B
:102C300020938F0130939001409391015093920122
:102C4000213002EE300704E0400700E0500708F4AE
:102C5000ECC02050324E4440504020938F013093BE
:102C60009001409391015093920183A594A5A5A54D
:102C7000B6A5209193013091940140919501509116
:102C80009601820F931FA41FB51F80939301909309
:102C90009401A0939501B093960127A930AD41AD61
:102CA00052AD82179307A407B50740F02093930114
:102CB0003093940140939501509396016091930154
:102CC0007091940180919501909196010E946612F5
:102CD000ACC083A994A9A5A9B6A9281739074A07A2
:102CE0005B0708F480C0281739074A075B0769F4B7
:102CF00080E091E7A2E0B0E080938F019093900193
:102D0000A0939101B093920190C020918B013091DA
:102D10008C0140918D0150918E0180918F01909195
:102D20009001A0919101B0919201280F391F4A1F83
:102D30005B1F20938F01309390014093910150933A
:102D40009201213012EE310714E0410710E05107E3
:102D500008F46BC02050324E4440504020938F0105
:102D600030939001409391015093920120919301EF
:102D70003091940140919501509196018091970175
:102D800090919801A0919901B0919A0182179307AF
:102D9000A407B50748F483A594A5A5A5B6A5281B47
:102DA000390B4A0B5B0B04C0569547953795279511
:102DB0002093930130939401409395015093960191
:102DC00027A130A541A552A580919301909194012E
:102DD000A0919501B091960182179307A407B507BA
:102DE00008F06CCF63CF27A930AD41AD52AD8091D3
:102DF000930190919401A0919501B0919601821751
:102E00009307A407B50789F02093930130939401A9
:102E10004093950150939601CA01B90157CF109282
:102E20009C0110929B010E94851A80919E019091B5
:102E3000E906892780939E0110929F01FF91EF91EF
:102E4000DF91CF91BF91AF919F918F917F916F91C2
:102E50005F914F913F912F911F910F91FF90EF90B4
:102E60000F900FBE0F901F901895F999FECF92BD4D
:102E700081BD81E08FBB80B50895F894F999FECFAC
:102E800092BD81BD81E08FBB40B54627842F992735
:102E900087FD9095262F30E082239323892B39F0EC
:102EA0006F3F19F060BD84E006C084E104C0442394
:102EB00021F060BD84E28FBBF99A789408958F92D7
:102EC0009F92AF92BF92CF92DF92EF92FF920F93B9
:102ED000DF93CF9300D0CDB7DEB75C016B017A01F1
:102EE0004A0100E01EC0002319F021E030E008C0D4
:102EF000202F332727FD30952227330F221F33271A
:102F0000F60161916F01062F020F9C012F5F3F4F69
:102F10003A8329830E943D1708948108910889818A
:102F20009A8181149104F9F6C7018A0D9B1D602FC7
:102F30000E943D170F900F90CF91DF910F91FF905E
:102F4000EF90DF90CF90BF90AF909F908F900895BB
:102F5000CF93DF93EC01FB019A0190E0B1E019C03F
:102F6000F999FECFF2BDE1BDBFBBA0B5992319F021
:102F700081E090E008C0892F992787FD90958827E8
:102F8000990F881F992731969A2F980FA99321504E
:102F900030402115310521F7460F571FF999FECF13
:102FA00052BD41BD81E08FBB80B520E030E0981775
:102FB00011F421E030E0C901DF91CF91089580E064
:102FC00090E0A8ECB4E48093D3069093D406A09349
:102FD000D506B093D6068093D7069093D806A093D3
:102FE000D906B093DA0680E090E0A8ECB2E48093D2
:102FF000DB069093DC06A093DD06B093DE068EE13F
:103000008093E00680E090E0A8E4B3E48093E106DA
:103010009093E206A093E306B093E40680E090E08C
:10302000A8E4B4E48093E5069093E606A093E7064F
:10303000B093E80680E090EAACE8B7E48093EE064F
:103040009093EF06A093F006B093F1068DEC9CEC04
:10305000ACECBDE38093EA069093EB06A093EC06FC
:10306000B093ED061092E9068DEC9CECACE4BDE368
:103070008093F2069093F306A093F406B093F506BE
:10308000089580E090E064E00E943D1781E090E0C8
:1030900063ED76E043E250E00E945F170895EF92FF
:1030A000FF920F931F93CF93DF93EC017A018B0173
:1030B0008530910509F455C08630910554F483306C
:1030C000910581F1843091050CF042C097FF12C048
:1030D00086C08730910509F456C0873091050CF4FD
:1030E00049C08830910509F457C08930910509F02D
:1030F00076C069C0CB01BA0120E030E040E050E08A
:103100000E944B2518161CF083E092E06FC0CC0F94
:10311000DD1FCC0FDD1FCD52D94FE882F9820A8323
:103120001B8360C0CB01BA0120E030E040E450E4F2
:103130000E944B2588231CF48CED91E057C0C801F8
:10314000B7010E9483280E94BF256093E0064AC011
:103150004093E1065093E2066093E3067093E40621
:1031600041C04093E5065093E6066093E7067093EE
:10317000E80638C04093EA065093EB066093EC06ED
:103180007093ED062FC0CB01BA010E94EE280E9479
:10319000BF256093E90626C0CB01BA0120E030E0EC
:1031A00040E752E40E94202820E030E040E752E46B
:1031B0000E9420286093EE067093EF068093F0063D
:1031C0009093F1060FC0DB01CA01BF778093F2062E
:1031D0009093F306A093F406B093F50603C088EC31
:1031E00091E004C00E94411883EB91E00E945624B4
:1031F000DF91CF911F910F91FF90EF9008951F9352
:1032000080E090E00E943517182F843081F483ED20
:1032100096E061E070E043E250E00E94A81720E0F1
:10322000892B09F421E081E0282730E05EC081305D
:1032300021F583ED96E061E070E04BE150E00E9403
:10324000A817892B09F44FC080E090EAACE8B7E4F6
:103250008093EE069093EF06A093F006B093F106EC
:103260008DEC9CECACE4BDE38093F2069093F30606
:10327000A093F406B093F50631C08250823098F5E1
:1032800083ED96E061E070E043E250E00E94A81711
:10329000892B49F1123061F48DEC9CECACE4BDE378
:1032A0008093F2069093F306A093F406B093F5068C
:1032B0006091EE067091EF068091F0069091F10614
:1032C00020E030E041E655E40E9420286093EE06BD
:1032D0007093EF068093F0069093F1060E944118D8
:1032E00021E030E002C020E030E0C9011F910895E4
:1032F00086E993E00E9456246091D3067091D4062B
:103300008091D5069091D6060E949A2381E893E099
:103310000E9456246091D7067091D8068091D906F4
:103320009091DA060E949A238CE693E00E9456243C
:103330006091DB067091DC068091DD069091DE06DF
:103340000E949A2387E593E00E9456246091E0064C
:1033500070E080E090E00E94092485E393E00E9401
:1033600056246091E1067091E2068091E306909107
:10337000E4060E949A2382E193E00E945624609121
:10338000E5067091E6068091E7069091E8060E94B6
:103390009A238FEE92E00E9456246091EA06709183
:1033A000EB068091EC069091ED060E949A2386ED43
:1033B00092E00E9456246091E90670E080E090E07F
:1033C0000E94092483EB92E00E9456248091E90632
:1033D0000E9425248AEA92E00E9456246091EE061B
:1033E0007091EF068091F0069091F10620E030E0B8
:1033F00041E655E40E9452250E949A2387E892E014
:103400000E9456246091F2067091F3068091F406B2
:103410009091F5060E949A2381E692E00E9456243C
:103420008CE192E00E94562408950E94FF18892B97
:1034300051F488E791E00E9456240E94DF170E9411
:1034400041180E9478190895EF92FF920F931F93ED
:10345000DF93CF93CDB7DEB729970FB6F894DEBFD1
:103460000FBECDBF8C0181E08983F8018081843259
:10347000E1F58181882319F40E94781934C0C801CC
:103480007E010894E11CF11CB701AE014E5F5F4F55
:103490000E942122892B59F19981F801E90FF11D30
:1034A00080818D3311F59F5F9983C801B701AE010B
:1034B0004A5F5F4F0E942122892BC9F08981080F42
:1034C000111DF8018081882381F46A817B818C81C0
:1034D0009D810E94BA25DC01CB014E815F81688508
:1034E00079850E944F1880E003C083E001C081E02D
:1034F00029960FB6F894DEBF0FBECDBFCF91DF91F6
:103500001F910F91FF90EF9008959091CA058091BF
:10351000CB05981741F08091CB058F5F823109F47C
:1035200080E08093CB0508959091CA058091CB05EA
:10353000981719F420E030E008C09091CB058BE398
:10354000989F900111242C553E4FC90108959091E8
:10355000CB0520E08091CC05981709F421E0822F5B
:103560000895EF92FF920F931F936093CD05709390
:10357000CE058093CF059093D0052093D10530934D
:10358000D2054093D3055093D405E092D505F0922F
:10359000D6050093D7051093D8051F910F91FF9082
:1035A000EF9008958F929F92AF92BF92CF92DF9249
:1035B000EF92FF920F931F93CF93DF93EC016B0178
:1035C000009709F460C08AA1882309F05CC0ED88E7
:1035D000FE880F89188DFB01B588A6889788808C96
:1035E000C801B7012B2D3A2D492D582D0E944B258E
:1035F00088230CF048C0C801B701A80197010E94B8
:1036000020287B018C016091EE067091EF0680917D
:10361000F0069091F106905820E030E040E050EC48
:103620000E9420282D8D3E8D4F8D58A10E9420286C
:103630009B01AC01C801B7010E9472240E94AD2811
:103640007B018C016B2D7A2D892D982D9701A80176
:103650000E944B25882324F4EB2CFA2C092D182DDD
:103660006B2D7A2D892D982D9701A8010E944B254D
:10367000882349F0C701D801F601858B968BA78B6B
:10368000B08F81E081A3DF91CF911F910F91FF90C7
:10369000EF90DF90CF90BF90AF909F908F90089564
:1036A0002F923F924F925F926F927F928F929F9252
:1036B000AF92BF92CF92DF92EF92FF920F931F9340
:1036C000DF93CF93CDB7DEB768970FB6F894DEBF20
:1036D0000FBECDBF1C016A017B0128013901DC014D
:1036E000D7966D917D918D919C91DA970E94EB25F3
:1036F0004B015C01A70196010E9420280E943825F9
:103700000E94BF257B018C01F10163A374A385A3F3
:1037100096A3C501B401A30192010E9420280E9432
:1037200038250E94BF2569877A878B879C87D101BE
:1037300097966D937D938D939C939A979B966D919D
:103740007D918D919C919E9722E330E040E050E086
:103750000E9411290E94ED2520E030E040E752E46C
:103760000E9420280E94BA252B013C01C801B70104
:103770000E94EB257B018C01C301B2010E94ED2563
:103780006D837E838F839887C501B401A501940161
:103790000E9420285B016C01C801B701A8019701B4
:1037A0000E9420286D877E878F87988B6D817E8110
:1037B0008F8198859B01AC010E947224698B7A8B62
:1037C0008B8B9C8BC601B5012D853E854F85588915
:1037D0000E94712429893A894B895C890E9452256B
:1037E0000E9438250E94BA2569837A838B839C8343
:1037F00069857A858B859C850E94EB259B01AC01B0
:103800000E9420286D8B7E8B8F8B988FA60195014F
:103810000E9471247B018C017094609450944094B8
:10382000411C511C611C711CC301B2010E94ED2599
:103830009B01AC010E9472249B01AC01C801B7013D
:103840000E9452250E942826F101A584B684C784CF
:10385000D0888601750129813A814B815C81E21A09
:10386000F30A040B150B0E94BA25A8019701261B29
:10387000370B480B590BDA01C90157FF4AC0C60183
:10388000B5010E94ED259B01AC0169897A898B897C
:103890009C890E9420282D853E854F8558890E944D
:1038A00071242D893E894F89588D0E9472247B0195
:1038B0008C016D817E818F81988520E030E040E829
:1038C00050E40E9420289B01AC01C801B7010E946E
:1038D00052250E9438250E94BA25AC01CB01DA019D
:1038E000BC01CD0197FF04C060E070E080E090E093
:1038F00069837A838B839C83A616B706C806D9068C
:1039000024F4A982BA82CB82DC8280E090E0A0E03D
:10391000B0E029813A814B815C81F10127A730AB6E
:1039200041AB52AB820F931FA41FB51F83AB94AB67
:10393000A5ABB6AB68960FB6F894DEBF0FBECDBF91
:10394000CF91DF911F910F91FF90EF90DF90CF907B
:10395000BF90AF909F908F907F906F905F904F90AF
:103960003F902F9008952F923F924F925F927F92B7
:103970008F929F92AF92BF92CF92DF92EF92FF927F
:103980000F931F93CF93DF93D090CA058091EE06DB
:103990009091EF06A091F006B091F1061C012D0167
:1039A00057FA509457F8509400E010E0C0E0D0E08F
:1039B000BB24B3943BE3C32E72C0DD2011F422E19B
:1039C000D22EDA94209709F463C00115110509F489
:1039D0005FC0A98C9A8C8B8C7C8C6D897E898F8939
:1039E000988D2A2D392D482D572D0E944B2588233F
:1039F00009F44EC08AA1882309F041C0F801E58886
:103A0000F6880789108D6A2D792D882D972DA801AC
:103A100097010E944E27181694F5C801B701A80116
:103A200097010E9420287B018C01C201B10120E096
:103A300030E040E050EC0E9420282D8D3E8D4F8DCF
:103A400058A10E9420289B01AC01C801B7010E9427
:103A500072240E94AD28162F072FF82EE92E6A2D0A
:103A6000792D882D972D212F302F4F2D5E2D0E94DF
:103A70004B2587FD04C0A12E902E8F2C7E2C8A2DE5
:103A8000992DA82DB72D8D8B9E8BAF8BB88FB9A29A
:103A9000DC9CC00111248E01EC01CC55DE4F8091DD
:103AA000CB05D81609F089CFF090CB0520E030E0A7
:103AB00000E010E09BE3E92E11C0FE9CE001112420
:103AC000CC55DE4FC901B801AE010E94D21AF39461
:103AD000F2E1FF1609F4FF2498018E018091CA05D6
:103AE000F81659F7C901B80140E050E00E94D21A17
:103AF0007090CB05C0E0D0E08BE3582E35C0759CAC
:103B00004001112484EA91E0880E991E209731F13A
:103B100089A1882321F4F40181A18823F9F0E9889F
:103B2000FA880B891C896D897E898F89988DA801F7
:103B300097010E9452255B016C01F4016589768929
:103B40008789908DA80197010E9452258B019C01C5
:103B5000CE01B601A5010E94501B19A27394F2E197
:103B60007F1609F47724E4018091CA05781639F6A6
:103B7000E988FA880B891C896D897E898F89988DDF
:103B8000A80197010E9452255B016C0160E070E082
:103B900080E090E0A80197010E9452258B019C01D2
:103BA000CE01B601A5010E94501B19A2DF91CF9151
:103BB0001F910F91FF90EF90DF90CF90BF90AF904B
:103BC0009F908F907F905F904F903F902F9008959F
:103BD000AF92BF92CF92DF92EF92FF920F931F931B
:103BE000CF93DF935B016C019091CB058BE3989FA2
:103BF000E0011124CC55DE4FC601B5010E94ED2530
:103C00002D8D3E8D4F8D58A10E9420287B018C0167
:103C10006D857E858F8598890E94ED259B01AC017D
:103C2000C801B7010E9452256D8F7E8F8F8F98A398
:103C3000AD86BE86CF86D88A80E090E0A0E0B0E076
:103C40008D8B9E8BAF8BB88F898F9A8FAB8FBC8FEC
:103C50001AA281E089A30E94B31CDF91CF911F912A
:103C60000F91FF90EF90DF90CF90BF90AF900895AD
:103C70002F923F924F925F926F927F928F929F927C
:103C8000AF92BF92CF92DF92EF92FF920F931F936A
:103C9000DF93CF93CDB7DEB7AF970FB6F894DEBF03
:103CA0000FBECDBF29013A01ADA2BEA2CFA2D8A6B8
:103CB00089A63091CA052BE3329F1001112424EA12
:103CC00031E0220E331E2091D3063091D40640916C
:103CD000D5065091D6060E9420280E94F0276983BD
:103CE0007A838B839C83C301B2012091D7063091E4
:103CF000D8064091D9065091DA060E9420280E94E9
:103D0000F0276D837E838F839887C801B701209148
:103D1000DB063091DC064091DD065091DE060E9404
:103D200020280E94F02769877A878B879C87D1019A
:103D30001C9229813A814B815C818091CD059091C3
:103D4000CE05A091CF05B091D005281739074A07B5
:103D50005B071CF480E2F10180832D813E814F815D
:103D600058858091D1059091D205A091D305B0914D
:103D7000D405281739074A075B0724F4D1018C9131
:103D800080648C9329853A854B855C858091D50527
:103D90009091D605A091D705B091D805281739077D
:103DA0004A075B0724F4F1018081806880832981C0
:103DB0003A814B815C818091CD059091CE05A09197
:103DC000CF05B091D005281B390B4A0B5B0B57FF71
:103DD00007C050954095309521953F4F4F4F5F4F0D
:103DE000D10111962D933D934D935C931497AD8023
:103DF000BE80CF80D8848091D1059091D205A091CA
:103E0000D305B091D405A81AB90ACA0ADB0AF10190
:103E1000A582B682C782D086D7FE0BC08827992795
:103E2000DC018A199B09AC09BD0985839683A783A8
:103E3000B08729853A854B855C858091D505909121
:103E4000D605A091D705B091D805281B390B4A0B90
:103E50005B0B57FF07C050954095309521953F4F1C
:103E60004F4F5F4FD10119962D933D934D935C9326
:103E70001C971596ED90FD900D911C911897119639
:103E80008D919D910D90BC91A02D8E159F05A00741
:103E9000B10710F4D801C70182179307A407B5072B
:103EA00010F4DA01C901F10185879687A787B08BE5
:103EB0000097A105B10509F467C269817A818B81F8
:103EC0009C812091CD053091CE054091CF05509138
:103ED000D005621B730B840B950B0E94ED2520917E
:103EE000D3063091D4064091D5065091D6060E9453
:103EF000522569A37AA38BA39CA3C601B5010E9496
:103F0000ED252091D7063091D8064091D9065091E1
:103F1000DA060E9452256D8F7E8F8F8F98A3698558
:103F20007A858B859C852091D5053091D605409169
:103F3000D7055091D805621B730B840B950B0E941B
:103F4000ED252091DB063091DC064091DD06509195
:103F5000DE060E945225698F7A8F8B8F9C8F69A114
:103F60007AA18BA19CA19B01AC010E9420287B011E
:103F70008C016D8D7E8D8F8D98A19B01AC010E946F
:103F800020289B01AC01C801B7010E9472247B016B
:103F90008C01698D7A8D8B8D9C8D9B01AC010E946B
:103FA00020289B01AC01C801B7010E9472240E9425
:103FB000AD287B018C01D1015D966D937D938D932E
:103FC0009C93909760E070E080E89FE3A8019701E0
:103FD0000E9452253B014C01B9A5BB2349F46DA1B8
:103FE0007EA18FA198A5A40193010E9420280AC058
:103FF00060E070E080E89FE32DA13EA14FA158A5AD
:104000000E9452255B016C01C801B701A601950110
:104010000E9420286AA77BA78CA79DA7F101618B2E
:10402000728B838B948B65857685878590890E94BA
:10403000ED257B018C01A60195010E9420280E949C
:1040400038250E94BF25D101D7966D937D938D931E
:104050009C93DA97C801B701A40193010E9420281C
:104060002091EE063091EF064091F0065091F10656
:104070000E94202820E030E84BE355E40E945225BE
:104080000E9438250E94BA25F10163A774A785A76D
:1040900096A769A17AA18BA19CA1A40193010E947A
:1040A00020287B018C016D877E878F87988B6D8D93
:1040B0007E8D8F8D98A1A40193010E9420285B0121
:1040C0006C01698B7A8B8B8B9C8B698D7A8D8B8D38
:1040D0009C8DA40193010E9420283B014C016D8B13
:1040E0007E8B8F8B988F9091CA058091CB05981706
:1040F00009F4BDC0F091E505FEA72091E6052FA7C4
:104100005090E7054090E8056F2F722F852D942D74
:1041100020E030E040E050E00E944E2718160CF0FE
:10412000A6C06091D9057091DA058091DB05909168
:10413000DC059058A80197010E9420287B018C0182
:104140006091DD057091DE058091DF059091E005BD
:10415000A60195010E9420289B01AC01C801B7016E
:104160000E9471247B018C01C401B3012091E105FF
:104170003091E2054091E3055091E4050E9420282A
:104180009B01AC01C801B7010E9471247B018C0125
:1041900023E333E343E75FE30E944B2588230CF0DE
:1041A00066C06EA57FA5852D942D2AA53BA54CA59F
:1041B0005DA50E944B2587FD08C08AA59BA5ACA5DF
:1041C000BDA58EA79FA75A2E4B2EC801B70123E38A
:1041D00033E343E75FEB0E944E2718160CF04CC008
:1041E00060E070E080E89FE3A80197010E947124DD
:1041F00020E030E040E05FE30E9420280E94AD28EC
:104200005B016C016091EE067091EF068091F00603
:104210009091F1062091F2063091F3064091F40658
:104220005091F5060E942028A60195010E942028A1
:104230007B018C0160E070E080E89FE3A6019501BE
:104240000E9471249B01AC01C801B7010E94522554
:104250000E94AD287B018C016EA57FA5852D942D34
:104260009701A8010E944B2587FD06C009C0EE24D6
:10427000FF2400E010E004C0EEA4FFA4052D142DDF
:10428000C701D801F101818F928FA38FB48F609104
:10429000EE067091EF068091F0069091F10690582D
:1042A00020E030E040E050EC0E942028D1015D96F3
:1042B0002D913D914D915C9190970E94202820E096
:1042C00030E040E050E00E9472240E94AD28D62EDB
:1042D000C72EB82EA92EB701C8012D2D3C2D4B2D70
:1042E0005A2D0E944B2587FD04C0ED2CFC2C0B2D74
:1042F0001A2DC701D801F101858B968BA78BB08F42
:1043000061897289838994892D2D3C2D4B2D5A2DDD
:104310000E944B2518162CF081E0D10192968C93C7
:1043200002C0F10112A281E0D10191968C93A9ED16
:10433000B5E0FE013D968CE001900D928150E1F7D1
:10434000F10181899289A389B4898093E5059093CD
:10435000E605A093E705B093E8058091CC0580932E
:10436000CA058091CA058F5F823109F480E080938D
:10437000CC05ADECB5E0FE0131968CE001900D92DC
:104380008150E1F70E94B31CAF960FB6F894DEBFE0
:104390000FBECDBFCF91DF911F910F91FF90EF9096
:1043A000DF90CF90BF90AF909F908F907F906F9055
:1043B0005F904F903F902F9008951F931BE306C08E
:1043C0000E9429118091E905882391F49091CA05F2
:1043D0008091CB05981741F08091CB05819FC0015A
:1043E00011248C559E4F61F780911106882341F767
:1043F0001F9108958091CA058093CB058091CA05CD
:104400008F5F823109F480E08093CC058CE1EDEC84
:10441000F5E0DF011D928A95E9F7089520EA3FE073
:1044200004C0F9013197F1F701970097D1F708958A
:1044300035E004C0232F2A95F1F701970097D1F7B3
:104440000895AF92BF92CF92DF92EF92FF920F93B7
:104450001F93DF93CF9300D0CDB7DEB76C015B0124
:104460007A01FB0180818601080F111DC801BE0180
:104470006F5F7F4F0E946D29F70160837183828394
:10448000938389819A818017910719F420E030E0A5
:1044900005C08C19F501808321E030E0C9010F903F
:1044A0000F90CF91DF911F910F91FF90EF90DF90D0
:1044B000CF90BF90AF90089584B1817F84B9089563
:1044C0004F925F926F927F928F929F92AF92BF9224
:1044D000CF92DF92EF92FF920F931F93982EA62E0A
:1044E000B42E822E6091E006222311F020E001C05C
:1044F00020EE91102460A1102860B11020616701A6
:104500007801C61AD108E108F1080091E9060227EE
:104510008BB1902F907E8F71982B9BB93EE0432EEC
:1045200024E0522E98E0692E80E1782E83B181102C
:104530008425992021F081FD02C005259924AA2017
:1045400021F082FD02C00625AA24BB2021F083FDB4
:1045500002C00725BB24992021F4AA2011F4BB2016
:1045600049F18BB1102F1C71812B8BB98091E00622
:1045700090E00E9418228BB118271BB987E9C81652
:10458000D104E104F10490F0C701B60121E630E066
:1045900040E050E00E94112924E630E040E050E085
:1045A0000E943029C901DA016C017D01C6010E9417
:1045B0001822BCCF1F910F91FF90EF90DF90CF900A
:1045C000BF90AF909F908F907F906F905F904F9033
:1045D0000895EF92FF920F931F930E94DD21289A76
:1045E0002D9A1092EC051092ED051092EE051092A6
:1045F000EF051092F0051092F1051092F20510925D
:10460000F3051092F4051092F5051092F60510923C
:10461000F70580E061E040E020E078E5E72E72E019
:10462000F72E012D112D0E94602282E390E00E945E
:104630000E2281E060E040E020E00E94602282E300
:1046400090E00E940E2281E061E040E021E050E62F
:10465000E52E59E0F52E012D112D0E94602282E3F6
:1046600090E00E940E2228982D980E9443131F91DB
:104670000F91FF90EF900895AF92BF92CF92DF928B
:10468000EF92FF920F93DF93CF93CDB7DEB7A29750
:104690000FB6F894DEBF0FBECDBF6B017C01611574
:1046A00071058105910521F480E30E94ED0E32C071
:1046B00000E05E010894A11CB11CC501800F911D92
:1046C0009AA389A3C701B6012AE030E040E050E098
:1046D0000E943029E9A1FAA160830F5FC701B601EA
:1046E0002AE030E040E050E00E943029C901DA01C0
:1046F0006C017D01C114D104E104F104F1F608C09C
:10470000FE01E00FF11D8081805D0E94ED0E0150E1
:104710000023B1F7A2960FB6F894DEBF0FBECDBF4F
:10472000CF91DF910F91FF90EF90DF90CF90BF90EE
:10473000AF900895AF92BF92CF92DF92EF92FF9227
:104740000F931F93CF93DF937B018C0120E030E028
:1047500040E050E00E944B2588233CF48DE20E940B
:10476000ED0E17FB109517F91095C801B7012AE057
:1047700037ED43EA5BE30E9472247B018C010E94C7
:10478000BA255B016C01CC24B7FCC094DC2CC601BB
:10479000B5010E943C238EE20E94ED0EC601B501D8
:1047A0000E94ED259B01AC01C801B7010E94712454
:1047B000C2E0D0E01EC020E030E040E251E40E94C0
:1047C00020285B016C010E94BA257B018C01862F99
:1047D000805D0E94ED0E6E2D70E0882777FD80953C
:1047E000982F0E94ED259B01AC01C601B5010E94E6
:1047F000712421972FEFCF3FD207E9F6DF91CF91B8
:104800001F910F91FF90EF90DF90CF90BF90AF90EE
:104810000895EF92FF920F931F937B018C0197FFF6
:104820000BC08DE20E94ED0E10950095F094E0947F
:10483000E11CF11C011D111DC801B7010E943C23A0
:104840001F910F91FF90EF9008950F931F93DF93A7
:10485000CF93CDB7DEB728970FB6F894DEBF0FBE63
:10486000CDBF982FFE0131969E01275F3F4F892FC4
:10487000817081939695E217F307C9F78E01085F5F
:104880001F4FF8018081805D0E94ED0E01501040A5
:104890000C171D07B1F728960FB6F894DEBF0FBEB0
:1048A000CDBFCF91DF911F910F910895CF93DF93EB
:1048B000EC0102C00E94ED0EFE0121968491882336
:1048C000C9F7DF91CF910895CF93DF93EC0103C037
:1048D00021960E94ED0E88818823D1F7DF91CF9138
:1048E00008955058BB27AA270ED076C23FD230F089
:1048F00044D220F031F49F3F11F41EF40FC20EF4A5
:10490000E095E7FBDCC1E92F89D280F3BA17620793
:1049100073078407950718F071F49EF5B8C20EF47A
:10492000E0950B2EBA2FA02D0B01B90190010C01BF
:10493000CA01A0011124FF27591B99F0593F50F4D7
:10494000503E68F11A16F040A22F232F342F44272F
:10495000585FF3CF469537952795A795F040539527
:10496000C9F77EF41F16BA0B620B730B840BBAF0F7
:104970009150A1F0FF0FBB1F661F771F881FC2F762
:104980000EC0BA0F621F731F841F48F48795779576
:104990006795B795F7959E3F08F0B3CF9395880F2D
:1049A00008F09927EE0F979587950895DFD158F075
:1049B00080E891E009F49EEFE0D128F040E851E072
:1049C00059F45EEF09C0AAC162C2E92FE07826D28D
:1049D00068F3092E052AC1F3261737074807590738
:1049E00038F00E2E07F8E02569F0E025E0640AC0F3
:1049F000EF6307F8009407FADB01B9019D01DC01C0
:104A0000CA01AD01EF935DD0E7D10AD05F91552384
:104A100031F02BED3FE049E450FD49EC63CF0895C0
:104A2000DF93DD27B92FBF7740E85FE3161617063F
:104A300048075B0710F4D92F96D29F938F937F93EB
:104A40006F93C9D3E8E6F0E06CD1C6D12F913F91C6
:104A50004F915F9101D3DD2349F09058A2EA2AEDEE
:104A60003FE049EC5FE3D0785D274DDFDF91B4C1D3
:104A7000F7D180F09F3740F491110EF409C260E045
:104A800070E080E89FE3089526F01B16611D711DFC
:104A9000811D1BC135C1EFD008F481E0089575D1A7
:104AA000E395ABC10CD098C168D140F05FD130F034
:104AB00021F45F3F19F003C15111EAC12FC1AED1FA
:104AC00098F39923C9F35523B1F3951B550BBB27D5
:104AD000AA2762177307840738F09F5F5F4F220F82
:104AE000331F441FAA1FA9F333D00E2E3AF0E0E87B
:104AF00030D091505040E695001CCAF729D0FE2FC7
:104B000027D0660F771F881FBB1F26173707480758
:104B1000AB07B0E809F0BB0B802DBF01FF2793580E
:104B20005F4F2AF09E3F510568F0C9C0B1C15F3F99
:104B3000ECF3983EDCF3869577956795B795F795F6
:104B40009F5FC9F7880F911D9695879597F90895EE
:104B5000E1E0660F771F881FBB1F6217730784078A
:104B6000BA0720F0621B730B840BBA0BEE1F88F799
:104B7000E095089504D06894B1118AC1089556D182
:104B800088F09F5790F0B92F9927B751A0F0D1F036
:104B9000660F771F881F991F1AF0BA95C9F712C0C0
:104BA000B13081F074D1B1E0089571C1672F782FD1
:104BB0008827B85F39F0B93FCCF38695779567952C
:104BC000B395D9F73EF490958095709561957F4F98
:104BD0008F4F9F4F0895E89409C097FB3EF490953E
:104BE0008095709561957F4F8F4F9F4F9923A9F0C6
:104BF000F92F96E9BB279395F69587957795679555
:104C0000B795F111F8CFFAF4BB0F11F460FF1BC098
:104C10006F5F7F4F8F4F9F4F16C0882311F096E92B
:104C200011C0772321F09EE8872F762F05C06623D9
:104C300071F096E8862F70E060E02AF09A95660F92
:104C4000771F881FDAF7880F9695879597F908954B
:104C500007D180F09F3740F491110EF019C160E048
:104C600070E080E89FEB089526F41B16611D711D0E
:104C7000811D2BC045C0990F0008550FAA0BE0E815
:104C8000FEEF16161706E807F907C0F0121613060E
:104C9000E407F50798F0621B730B840B950B39F44E
:104CA0000A2661F0232B242B252B21F408950A26B4
:104CB00009F4A140A6958FEF811D811D089597F9F4
:104CC0009F6780E870E060E00895882371F477239F
:104CD00021F09850872B762F07C0662311F499276F
:104CE0000DC09051862B70E060E02AF09A95660F17
:104CF000771F881FDAF7880F9695879597F908959B
:104D00009F3F31F0915020F4879577956795B7953F
:104D1000880F911D9695879597F908959FEF80ECE0
:104D20000895DF93CF931F930F93FF92EF92DF923B
:104D30007B018C01689405C0DA2EEF018DD1FE0154
:104D4000E894A5912591359145915591AEF3EF01E8
:104D5000DADDFE019701A801DA9479F7DF90EF9090
:104D6000FF900F911F91CF91DF91089500240A9435
:104D70001616170618060906089500240A94121636
:104D80001306140605060895C9CF50D0E8F3E89439
:104D9000E0E0BB279F57F0F02AED3FE049EC06C06A
:104DA000EE0FBB0F661F771F881F28F0B23A62070D
:104DB0007307840728F0B25A620B730B840BE395D8
:104DC0009A9572F7803830F49A95BB0F661F771F5B
:104DD000881FD2F7904896CF092E0394000C11F447
:104DE000882352F0BB0F40F4BF2B11F460FF04C0C6
:104DF0006F5F7F4F8F4F9F4F0895EF93E0FF06C087
:104E0000A2EA2AED3FE049EC5FEB7DDDE5DF0F90A4
:104E1000039401FC9058E5E9F0E0F2C157FD905889
:104E2000440F551F59F05F3F71F04795880F97FB6E
:104E3000991F61F09F3F79F0879508951216130628
:104E40001406551FF2CF4695F1DF08C01616170657
:104E50001806991FF1CF869571056105089408958C
:104E6000E5DFA0F0BEE7B91788F4BB279F3860F4F0
:104E70001616B11D672F782F8827985FF7CF869574
:104E800077956795B11D93959639C8F30895E89481
:104E9000BB2766277727CB0197F90895ECDE08F446
:104EA0008FEF089563DF19F068DF09F037CF07CF80
:104EB000B901CA0125CF9F775F77B0DF98F39923B7
:104EC000B9F35523B9F3FF27951758F4E52FE91BDC
:104ED000ED3070F75E3B10F0F1E41CC09034E0F46C
:104EE0000AC0E92FE51BED3028F79E3B10F0F1E4F6
:104EF00011C0503488F4F9EA88232AF09A95660F95
:104F0000771F881FDAF744232AF05A95220F331FA0
:104F1000441FDAF79F1B5F1BFF931F930F93FF92B2
:104F2000EF9279018A01BB27AB2F9B01AC0196D090
:104F30009701A801BF937B018C01AA27BA2FB90161
:104F4000CA018CD0AF919701A801EF90FF900F910B
:104F50001F91D9DC41DF01D14F9140FF08955527C2
:104F600047FD509509C09B01AC0160E070E080E80E
:104F70009FE398CDA4CEC4CE59DFE8F39923D9F3AB
:104F8000940F511DBBF39150504094F059F0882379
:104F900032F0660F771F881F91505040C1F79E3F37
:104FA000510544F7880F911D9695879597F90895B7
:104FB0005F3FACF0983E9CF0BB2786957795679550
:104FC000B79508F4B1609395C1F7BB0F58F711F48A
:104FD00060FFE8CF6F5F7F4F8F4F9F4FE3CF58CF7A
:104FE00025DF58F19E5758F19851A0F0E9F098301C
:104FF00020F5092E9927660F771F881F991F0A949D
:10500000D1F712C0062E672F782F8827985F11F4EA
:10501000000C07C0993FB4F38695779567959395F3
:10502000D9F7611D711D811D3EF490958095709595
:1050300061957F4F8F4F9F4F0895689429CF27CF59
:105040000BD0CACE93DE28F098DE18F0952309F035
:1050500036CE64CE11241CCFE1DEA0F3959FD1F3B0
:10506000950F50E0551F629FF001729FBB27F00D16
:10507000B11D639FAA27F00DB11DAA1F649F66276B
:10508000B00DA11D661F829F2227B00DA11D621FBA
:10509000739FB00DA11D621F839FA00D611D221F74
:1050A000749F3327A00D611D231F849F600D211D58
:1050B000822F762F6A2F11249F5750408AF0E1F0FB
:1050C00088234AF0EE0FFF1FBB1F661F771F881F44
:1050D00091505040A9F79E3F510570F0F0CDD8CEC9
:1050E0005F3FECF3983EDCF3869577956795B7952F
:1050F000F795E7959F5FC1F7FE2B880F911D969559
:10510000879597F9089592DEE0F09E37D8F09639AA
:10511000B8F49E3848F4672F782F8827985FF9CF26
:1051200086957795679593959539D0F3B62FB1709D
:105130006B0F711D811D20F4879577956795939569
:10514000C4CDDECDA5CE9F9320DE0F9007FCEE5F91
:1051500054CE11F40EF4E2CDD3CD68DED0F3992312
:10516000D9F3CEF39F57550B87FF43D00024A0E619
:1051700040EA900180585695979528F4805C660F18
:10518000771F881F20F026173707480730F4621B67
:10519000730B840B202931294A2BA6951794079469
:1051A000202531254A2758F7660F771F881F20F0E2
:1051B00026173707480730F4620B730B840B200D5A
:1051C000311D411DA09581F7B901842F9158880F99
:1051D0009695879508959B01AC0132CF41DE20F072
:1051E0009F3708F455CE71CD8BCD45DD880B990BDB
:1051F000089591505040660F771F881FD2F7089589
:105200009F938F937F936F93FF93EF939B01AC01D9
:1052100017DFEF91FF9185DD2F913F914F915F91C6
:105220000FCF629FD001739FF001829FE00DF11DAF
:10523000649FE00DF11D929FF00D839FF00D749F10
:10524000F00D659FF00D9927729FB00DE11DF91FBC
:10525000639FB00DE11DF91FBD01CF011124089519
:10526000A1E21A2EAA1BBB1BFD010DC0AA1FBB1F6A
:10527000EE1FFF1FA217B307E407F50720F0A21BDC
:10528000B30BE40BF50B661F771F881F991F1A9449
:1052900069F760957095809590959B01AC01BD0173
:1052A000CF01089597FB092E05260ED057FD04D097
:1052B000D7DF0AD0001C38F45095409530952195E1
:1052C0003F4F4F4F5F4F0895F6F79095809570953B
:1052D00061957F4F8F4F9F4F0895A0E0B0E0E3E7C7
:1052E000F9E20C94F62AEC015B016115710519F0E5
:1052F000FB0191838083F9908F2D90E00E94CD2A4D
:10530000892BC9F7FDE2FF1621F4F990EE24E3940E
:1053100005C02BE2F21609F4F990EE248E0101503B
:105320001040C8016CE973E043E050E00E94D52AC8
:10533000892B01F58E010E5F1F4FC8016FE973E0E5
:1053400045E050E00E94D52A892B19F48E01095FAF
:105350001F4FA114B10419F0F50111830083E0FC83
:1053600004C070E090E080E814C070E090E080E855
:105370006FEF08C1C80164EA73E043E050E00E94A7
:10538000D52A892B69F4A114B10429F470E090E0C6
:1053900080EC6FE7F7C02296F501D183C083F6CF8A
:1053A0008824992440E050E060E070E0EF2DE05365
:1053B000EA30A0F5F2E0EF2A8E2D90E09C012870F3
:1053C0003070E2FE06C0232B79F50894811C911CF5
:1053D0002BC0232B19F0089481089108DB01CA0126
:1053E00012E0880F991FAA1FBB1F1A95D1F7480F0B
:1053F000591F6A1F7B1F440F551F661F771F4E0FD3
:10540000511D611D711D483929E9520729E96207BB
:1054100029E1720748F084E0E82A06C0EE3F31F443
:10542000E3FC39C098E0E92AF990C0CFE53311F0E8
:10543000E53189F529912D3219F4E0E1EE2A05C014
:105440002B3219F081E090E003C0299182E090E0D6
:10545000E22FE053EA3018F0C81BD90B1CC020E043
:1054600030E0FCE020383F075CF4C901880F991F49
:10547000880F991F280F391F220F331F2E0F311D40
:10548000E991E053EA3068F3E4FE03C030952195DA
:105490003F4F820E931ECE2CDD24E1FE07C0A114E7
:1054A000B10421F02197F501D183C083CB01BA016A
:1054B0000E94EB257B018C01F3E0CF22DD2423E069
:1054C000C216D10421F417FB109517F91095570156
:1054D0006801C801B70120E030E040E050E00E94E0
:1054E0004B25882309F44AC097FE0DC02BEBE22E12
:1054F00023E0F22E9094819491089394C0E2D0E03E
:1055000000E010E012C093EDE92E93E0F92EF6CF03
:10551000F7012591359145915491C601B5010E943D
:1055200020285B016C018C1A9D0A8C169D0684F75D
:10553000D595C7950F5F1F4F0630110529F08CEFE9
:105540009FEFE80EF91EF1CFC501D6017C018D0158
:105550008C2D880F8D2D881F8F3F51F0C601B5010E
:1055600020E030E040E050E00E944B25882331F4F9
:1055700082E290E09093F7068093F6067E2D9F2DB1
:10558000802F612F272F392F482F562FB901CA019D
:10559000CDB7DEB7ECE00C94122B91111EC0803217
:1055A00019F089508550D0F70895FB01DC01415076
:1055B000504088F08D9181341CF08B350CF4805E66
:1055C000659161341CF06B350CF4605E861B6111D3
:1055D00071F3990B0895881BFCCF992788270895AC
:1055E0002F923F924F925F926F927F928F929F92F3
:1055F000AF92BF92CF92DF92EF92FF920F931F93E1
:10560000CF93DF93CDB7DEB7CA1BDB0B0FB6F89491
:10561000DEBF0FBECDBF09942A88398848885F84D1
:105620006E847D848C849B84AA84B984C884DF8042
:10563000EE80FD800C811B81AA81B981CE0FD11D26
:105640000FB6F894DEBF0FBECDBFED010895F894FC
:02565000FFCF8A
:1056520053773A5B005D0D0A004D506F733A5B0061
:0C5662002C005D2C57506F733A5B000069
:00000001FF
